:020000040800F2
:1000000040430020B1060008B5060008B706000806
:10001000B9060008BB060008BD0600080000000085
:10002000000000000000000000000000BF06000803
:10003000C106000800000000C3060008F1B5000872
:10004000C7060008C7060008C706000851160008C2
:10005000C7060008C706000835100008C7060008D4
:10006000C706000857100008C7060008C7060008A2
:10007000C7060008C7060008C7060008C70600082C
:10008000C7060008C7060008BD180008C706000814
:10009000C7060008C7060008C7060008C70600080C
:1000A000C7060008C7060008C7060008C7060008FC
:1000B0009D2A0008C7060008C7060008C7060008F2
:1000C000C7060008C7060008C7060008C7060008DC
:1000D000C706000851150008C7060008C51B000820
:1000E000C70600087316000879100008DFF80CD066
:1000F0000DF066F900480047B102000840430020B7
:1001000070B501F00AFC0025002411E001F0FCFBB1
:10011000AF480068C6B2AE484C38006820F0040012
:10012000AB494C39086006EB8400C4B2681CC5B208
:10013000042DEBDB2146A7A00DF082F9204670BD0F
:100140002DE9F04105460024002721E0601C285CD1
:10015000295D00EB012086B256B9002F08DB38007C
:1001600007F101014FB211D19EA00DF069F90DE028
:10017000002F02DD4FF0FF3704E0002C02DD9AA0D3
:100180000DF05EF9314699A00DF05AF9A01C44B269
:10019000102CDBD3BDE8F08110B5044694A00DF01F
:1001A0004FF905E02068416894A00DF049F9241D3D
:1001B00020680028F6D193490A200DF0A9FB10BD54
:1001C00010B588B000F0F0FA3D208F4988614FF0FB
:1001D00000708E49486000F0EDFE01F078FA0020D2
:1001E0008B4900900968480800231A464FF4E13112
:1001F00001F0F6FB87A38AA28CA18FA00DF020F955
:1002000001F001FE0BF01BFA02F0C4FB02F0A9FAA8
:100210000021914802F07FFA02F03AFD8F49086808
:1002200080478E49086A8047FFF76AFF044602F05C
:10023000B6FE06A802F094F810B189A00DF000F9FE
:100240008F48069901600799416006A809F09AFE57
:100250009DF81F009DF81E109DF81D209DF81C3074
:10026000CDE90132CDE903109DF81B0000909DF807
:100270001A309DF819209DF8181082A00DF0E0F8B2
:100280000AF0EDF9894948688047894948688047FC
:100290008849486880470021874802F03CFA0021DD
:1002A000864802F038FA86A00DF0CAF808B010BDF2
:1002B000FFF786FF8AE002F0D9FA02F06BF8854872
:1002C0000068401C834908600BF0E8F9824909681E
:1002D00088427BD00BF0E2F97F490860084600684D
:1002E0003C21B0FBF1F201FB120008B902F062FE02
:1002F000794800684FF41671B0FBF1F201FB12006F
:10030000022863D1042175A00DF09AF800250FE0B2
:10031000784800EB4510007840B1764901EB451173
:10032000881CFFF70DFF74A00DF08AF8681CC5B299
:10033000042DEDDB142171A00DF082F875480068E2
:1003400009F067FF06460CE03046FFF7F9FE6AA0A9
:100350000DF076F8002731466E48006809F03DFF41
:100360000646002EF0D117B16BA00DF069F81421EC
:100370006CA00DF065F814216AA00DF061F801275A
:1003800006F09FFA044617E004F10800FFF7D8FED4
:1003900094F8241068A00DF053F8204606F005FAF2
:1003A0008046FFF7CDFE67A0A1690DF049F8002750
:1003B000204606F08CFA0446002CE5D117B156A071
:1003C0000DF03EF861A00DF03BF800BF73E70000B0
:1003D0004C240140726E6720697373756573202524
:1003E000640A00003A3A00003A0000002578000054
:1003F0005374617274696E670000000020272573D2
:1004000027000000C403002000100240000001404B
:100410004800002030303A34323A303600000000D4
:100420004D6172203134203230313600436F6E74AA
:10043000696B6920332E78000A2A2A2A20426F6FBE
:1004400074696E6720257320282573202573292061
:100450002A2A2A0A00000000C400002034DC000818
:1004600052616E646F6D2045554936342061646475
:10047000726573732067656E6572617465640A00E6
:10048000230100204555492D3634204D41433A2063
:1004900025782D25782D25782D25782D25782D2545
:1004A000782D25782D25780A0000000090DD0008C1
:1004B000B0DB000898D90008440200203400002076
:1004C00050726F6365737365732072756E6E696EBB
:1004D000670A000000000020040000200A41646454
:1004E000726573736573205B2575206D61785D0A95
:1004F000000000001C1900200A0000000A4E656977
:100500006768626F7273205B2575206D61785D0A84
:10051000000000004002002020203C6E6F6E653E0F
:10052000000000000A526F75746573205B2575200A
:100530006D61785D0A0000002F25752028766961BD
:10054000200000002920256C75730A000A2D2D2D2E
:100550002D2D2D2D2D2D0A002DE9F04104460E469E
:1005600017460125208810B1472814D109E011E071
:1005700080213D4801F0C9FF00BF002547202080B1
:1005800000BF1DB1384801F0F1FF10B90120BDE8EE
:10059000F08100BFECE70025002020800320F6E773
:1005A0002DE9B0430446884691460127208890B93A
:1005B00010E002F065FA054600BF02F061FA4FF460
:1005C0007A716918401A00B20028F6DB27A00CF0F7
:1005D00037FF00BFEDE70027002020800320BDE8A3
:1005E000B0832DE9F04104460D46174601262088C8
:1005F00020B17E2816D0802831D128E00021214862
:1006000002F089F82048012182688120904725E086
:100610004FF4A0611D4801F078FF00BF00267E2046
:10062000208000BF1EB1194801F0A0FF10B90120C1
:10063000BDE8F08100BF00BF00228521144800689A
:1006400002F028F900BF00268020208000BF0EB1F4
:10065000852D01D00120EBE700BF00BFD8E70026C1
:10066000002020800320E3E73404002048656C6C00
:100670006F20776F726C642070726F636573733371
:100680000D0A00001400002020DC000844040020B3
:10069000E000002010B50446214602A00CF0D0FE78
:1006A00010BD00007569703A2025730A0000000033
:1006B00005480047FEE7FEE7FEE7FEE7FEE7FEE748
:1006C000FEE7FEE7FEE7FEE7ED0000080CB50020C0
:1006D000019000906B48006840F001006949086093
:1006E00000BF6848006800F0020000900198401CBC
:1006F0000190009818B90198B0F5A06FF1D1614848
:10070000006810F0020F02D00120009001E00020EC
:1007100000900098012842D15B48006840F010002A
:10072000594908600846006820F003000860084640
:10073000006840F001000860524840685149486034
:100740000846406848600846406840F48060486059
:100750000846406820F47C1048600846406840F431
:10076000201048600846006840F08070086000BFB4
:100770004448006810F0007FFAD04248406820F0FA
:100780000300404948600846406840F00200486065
:1007900000BF3C48406800F00C000828F9D10CBDAF
:1007A00010B5FFF793FF10BD10B53648006840F054
:1007B000010034490860084640683449084031491E
:1007C000486008460068324908402E4908600846DB
:1007D000006820F4802008600846406820F4FE008D
:1007E00048604FF41F008860FFF7DAFF4FF00060A9
:1007F0002849086010BD10B5002100200022214BBF
:100800005B6803F00C0121B1042906D0082928D126
:1008100007E0214B214C236027E01F4B1F4C236036
:1008200023E0184B5B6803F47010164B5B6803F40D
:100830008032022303EB904022B9194B4343174CFB
:1008400023600DE00F4B5B6813F4003F04D0144BA2
:100850004343124C236003E00F4B43430F4C236090
:1008600003E00D4B0D4C236000BF00BF054B5B68E0
:10087000C3F303130B4CE15C084B1B68CB40074CE4
:10088000236010BD00100240002002400000FFF86D
:10089000FFFFF6FE08ED00E000127A00480000209D
:1008A00000093D004C00002010B50446CA488442AF
:1008B00008D10121042000F027FB0021042000F0D2
:1008C00023FB46E0C548844208D10121082000F0FE
:1008D0001BFB0021082000F017FB3AE0C0488442CF
:1008E00008D10121102000F00FFB0021102000F0A2
:1008F0000BFB2EE0BB48844208D10121202000F0F0
:1009000003FB0021202000F0FFFA22E0B6488442D9
:1009100008D10121402000F0F7FA0021402000F02A
:10092000F3FA16E0B148844208D10121802000F09A
:10093000EBFA0021802000F0E7FA0AE0AC4884429C
:1009400007D10121801500F0DFFA0021A01500F089
:10095000DBFA10BD10B50121084600F0D5FA0021E0
:10096000012000F0D1FA10BD2DE9F041024600252A
:100970000026002000230024002791F803C00CF07B
:100980000F0591F803C01CF0100F03D091F802C0BE
:100990004CEA050591F800C0BCF1000F31D0146895
:1009A00000202BE04FF0010C0CFA00F3B1F800C06E
:1009B0000CEA03069E4220D183004FF00F0C0CFA84
:1009C00003F7BC4305FA03FC4CEA040491F803C0A6
:1009D000BCF1280F06D14FF0010C0CFA00FCC2F854
:1009E00014C00AE091F803C0BCF1480F05D14FF0E4
:1009F000010C0CFA00FCC2F810C0401C0828D1D32E
:100A00001460B1F800C0BCF1FF0F34DD5468002061
:100A10002EE000F1080C4FF0010808FA0CF3B1F8D1
:100A200000C00CEA03069E4221D183004FF00F0C58
:100A30000CFA03F7BC4305FA03FC4CEA040491F8F2
:100A400003C0BCF1280F05D100F1080C08FA0CF81E
:100A5000C2F8148091F803C0BCF1480F07D100F12F
:100A6000080C4FF0010808FA0CF8C2F81080401C7E
:100A70000828CED35460BDE8F0814FF6FF710180A5
:100A8000022181700421C1707047024600209368E2
:100A90000B4201D0012000E0002070470146886829
:100AA00080B2704702460020D3680B4201D001207B
:100AB00000E0002070470146C86880B270470161BD
:100AC0007047416170470AB1016100E041617047C0
:100AD000C16070474FF480320A4382618161826154
:100AE00082698269704702460020424B18684FF6BF
:100AF0008073184040EA021008433E4B186070476C
:100B00003D49C8617047F0B50A4600230024002122
:100B1000002500F00046B6F1004F02D1354EF169D4
:100B200001E0344E7168C0F3034583B200F440160F
:100B3000B6F5401F08D121F070612E4E766826F080
:100B400070662C4F7E6012E000F48016B6F5801FB0
:100B500006D1032606FA05F4A14341F0706106E0D0
:100B6000460D360103FA06F6B14341F0706122B139
:100B7000460D360103FA06F6314300F00046B6F1A1
:100B8000004F02D11B4EF16101E01A4E7160F0BDC1
:100B900030B500228B071C0F0F2303FA04F2154B0C
:100BA00008338C1053F824309343124C08348D10C2
:100BB00044F8253023468C1053F824308C07240F3A
:100BC00000FA04F423430B4C08348D1044F825300C
:100BD00030BD0A490860704700080140000C014020
:100BE000001001400014014000180140001C0140A9
:100BF000002001400000014000002042DC002042B3
:100C0000DD48006840F00100DB49086008464068A4
:100C1000DA490840D849486008460068D849084081
:100C2000D54908600846006820F48020086008461E
:100C3000406820F4FE0048604FF41F008860704751
:100C4000CD49096821F48031CB4A11601146096809
:100C500021F480211160B0F5803F03D0B0F5802FE2
:100C60000ED106E0C449096841F48031C24A1160DE
:100C700007E0C149096841F4A021BF4A116000E0C2
:100C800000BF00BF704710B50146002200230020BE
:100C90004A11012A02D1B84C236806E0022A02D187
:100CA000B54C236A01E0B44C636A01F01F020124D1
:100CB00094401C4201D0012000E0002010BD38B556
:100CC000002000900024002500BF3120FFF7DBFF4B
:100CD00005460098401C00900098B0F5A06F01D028
:100CE000002DF2D03120FFF7CEFF08B1012400E043
:100CF0000024204638BD014600209F4A106820F09D
:100D0000F80040EAC100106070479E4908607047D3
:100D100002460020984B586820F47C1042EA0103F8
:100D20001843954B586070479649086670470146CE
:100D30000020914A506820F003000843506070473B
:100D40008D48406800F00C007047014600208A4A38
:100D5000506820F0F00008435060704701460020C2
:100D6000854A506820F4E0600843506070470146AF
:100D70000020814A506820F4605040EAC100506071
:100D8000704729B17C4A527A02437B4B5A7204E085
:100D9000794A527A8243784B5A7270477A4908608E
:100DA000704701460020744A506820F440400843D0
:100DB000506070470021754A11706F4A82F8201008
:100DC000012802D0042808D103E001216F4A1170E4
:100DD00004E005216D4A117000E000BF00BF7047BC
:100DE0006B49086070476449096A0143624A1162AD
:100DF0007047674944390860704730B500210022C8
:100E0000002400235C4D6D6805F00C0121B104291C
:100E100005D0082923D105E05E4D056022E05D4D37
:100E200005601FE0544D6D6805F47012524D6D68F9
:100E300005F48034022505EB92421CB9564D55430A
:100E400005600BE04C4D6D6815F4003F03D0524D2A
:100E50005543056002E04F4D5543056002E04D4D9E
:100E6000056000BF00BF444D6D6805F0F001090941
:100E70004A4D6B5C0568DD4045603F4D6D6805F48B
:100E8000E061090A454D6B5C4568DD4085603A4D7F
:100E90006D6805F46051C90A404D6B5C4568DD40E2
:100EA000C560354D6D6805F44041890B3C4D6B5C68
:100EB000C568B5FBF3F5056130BD29B12E4A52690D
:100EC00002432D4B5A6104E02B4A526982432A4B5C
:100ED0005A61704729B1284A92690243264B9A61A8
:100EE00004E0254A92698243234B9A61704729B1F5
:100EF000214AD2690243204BDA6104E01E4AD269DA
:100F000082431D4BDA61704729B11B4AD268024304
:100F1000194BDA6004E0184AD2688243164BDA6053
:100F2000704729B1144A12690243134B1A6104E055
:100F3000114A12698243104B1A61704714494039B3
:100F4000086070470F49C86470470B49C871704703
:100F50000948406A40F0807007494862704701467E
:100F60000020054A92680A4201D0012000E00020DA
:100F70007047014988727047001002400000FFF876
:100F8000FFFFF6FE00004242D8004242201002401D
:100F90008004424200127A0000093D005C000020FB
:100FA0006C00002070B504460D46E0B200F0CEFDA6
:100FB000204670BD3348406840F0007031494860B9
:100FC0000846806820F00F0088600846C06820F05E
:100FD000F0012C48C160006920F47061294801616A
:100FE000406920F47041274841614FF400302649A0
:100FF000086025481438006820F40030224914396C
:101000000860081D006820F40030091D0860081FF2
:10101000006840F40030091F0860081D006840F4B3
:101020000030091D0860081D006840F40030091DEB
:101030000860704710B51448006810F0010F09D01F
:1010400012A00CF0FDF90021084600F05BFF012022
:101050000D49086010BD10B50B48006810F0080F6E
:1010600009D00EA00CF0ECF90021084600F04AFF70
:1010700008200549086010BD4FF48020024908602F
:101080007047000000000140140401400D0A475061
:10109000494F325F494E540D0A0000000D0A475077
:1010A000494F305F494E540D0A00000002281ED1FE
:1010B000A049098801F441519E4A118011460988CE
:1010C00041F44D7111809B491C3109884FF2FF7228
:1010D0001140984A1C3211800721964A1032118023
:1010E0009449098841F04001924A118035E0012875
:1010F00033D19149896941F480518F4A91618F4977
:101100000968C1F313018D4A11601146096841F461
:10111000300111601146096841F0306111601146DB
:10112000096841F0304111608549098801F4415155
:10113000834A11801146098841F44D71118011468E
:10114000898B4FF2FF7211407D4A918307211182F2
:101150001146098841F040011180704702281ED1D4
:101160007449098801F44151724A11801146098875
:1011700041F4417111806F491C3109884FF2FF72AF
:1011800011406C4A1C32118007216A4A10321180CA
:101190006849098841F04001664A118035E001281C
:1011A00033D166490968C1F31301644A11601146DD
:1011B000096841F4300111601146096841F030615D
:1011C00011601146096841F0304111605A4989693E
:1011D00041F48051584A91615949098801F44151BB
:1011E000574A11801146098841F443711180114614
:1011F000898B4FF2FF721140514A9183072111826E
:101200001146098841F04001118070474B48006841
:10121000C0F31300494908600846006820F47020B4
:1012200008604548806920F48050434988617047D0
:1012300030B50246434B918100BF148914F0010F71
:1012400003D11C00A3F10103F7D19489E0B230BDB2
:10125000F0B502464C0810463A4B00BF10F8016B3F
:10126000374FBE81374B00BF354E368916F0010F20
:1012700003D11E00A3F10103F6D1314EB689F5B2B8
:1012800010F8016B2E4FBE812E4B00BF2C4E3689BD
:1012900016F0010F03D11E00A3F10103F6D1284E71
:1012A000B689F5B2661E3400D8D1F0BD70B50246DD
:1012B0004C081046234B00BFFF25214EB581214B22
:1012C00000BF1F4D2D8915F0010F03D11D00A3F1A3
:1012D0000103F6D11A4DAD8900F8015BFF25184EC8
:1012E000B581184B00BF164D2D8915F0010F03D1A4
:1012F0001D00A3F10103F6D1114DAD8900F8015B8A
:10130000651E2C00D8D170BD4FF4546110200B4ADB
:101310001432106007E009480830006810F0400FF0
:1013200001D1012070470800A1F1010291B2F2D170
:1013300000BFF7E7003800400010024000080140FD
:1013400000300140A086010070B504460D46B64845
:10135000806940F48040B4498861B448006820F452
:101360007F60B24908600846006840F0F0000860FD
:101370000846006840F48060086004EBC40000EB9D
:101380000410A900B0FBF1F06421B0FBF1F104EB13
:10139000C40000EB0410AA00B0FBF2F004EBC4029E
:1013A00002EB0412AB00B2FBF3F26423B2FBF3F2E4
:1013B00002EBC20303EB0212A0EB8200322202EB2B
:1013C00000106422B0FBF2F061F31F10984908800E
:1013D0000020091D0880091D0880081F0088091FBA
:1013E0000880002092490C3108809148001D008837
:1013F00040F00C008E49091D08808D480C30008893
:1014000040F4C0608A490C3108808848006820F4A4
:101410007040864908600846006840F480400860D3
:101420000846006820F4702008600846006840F410
:10143000E020086088147D49103108607C48001D58
:10144000008840F020007A49091D08800A15794972
:10145000794800F0E9F97648001D008840F08000E6
:101460007349091D08800A157449754800F0DCF9B4
:1014700025200921002807DA0A07160E714A00F014
:101480000F031B1FD65403E00A07130E6E4A1354B2
:1014900000BF252000F01F020121914042094FF0BA
:1014A000E02303EB8202C2F8001100BF6048001D78
:1014B000008840F400505E49091D088070BD5A48FC
:1014C000806920F48040584988615848006820F4B9
:1014D0007F6056490860704770B504465B4D00BF99
:1014E000574800F0DCF956498968491E884203D301
:1014F0002800A5F10105F3D12146514800F0A3F9D8
:101500004B48001D008800F08000802807D0484824
:10151000001D008840F080004549091D08802046D4
:1015200070BD10B5044603E014F8010BFFF7D4FFBB
:1015300020780028F8D110BD00BF3D480838008849
:1015400010F0200FF9D03A48001F0088C0B2704751
:1015500008B5FF20009036480838008810F0280FA2
:101560000ED03348001F0088C0B200909DF80010D4
:10157000314800F068F9304800F091F92E48806851
:101580002B480838008810F4007F32D028480838EB
:10159000008820F400702649083908802348001D7F
:1015A000006810F4006F0AD0084600882048001D2B
:1015B000008820F080001E49091D088032E069463D
:1015C0001F4800F055F920BB1948001D008800F0A5
:1015D0008000802807D01648001D008840F0800059
:1015E0001349091D08809DF800001149091F088052
:1015F00018E00F480838008810F0800F12D06946B4
:101600000F4800F035F928B99DF800000849091F76
:10161000088007E00648001D008820F0800004498B
:10162000091D088008BD00000010024004080140A8
:101630000838014054040020540C002054080020B5
:10164000640C002018ED00E000E400E000E1F50586
:101650006D48008800F001006B490880084600884A
:1016600000F00200088069480068401C6749086073
:1016700070476548008800F00200634908804FF415
:10168000003063490860704700215F4818300188C6
:10169000001F008841EA004070475E48016A11F06F
:1016A000020F01D10020704711F0010F01D100207D
:1016B000F9E711F4004F01D10020F4E701F4407084
:1016C000B0F5807F01D00020EDE70120EBE700B509
:1016D0005048C06940F080504E49C8614E4800688B
:1016E00040F480704C490860FFF7D7FF18B1FFF74E
:1016F000CBFF4A4908604748406A40F0010045492D
:10170000486200BF4348406A10F0020FFAD04148D7
:10171000006A40F402403F4908623B48008840F0BC
:101720001000394908800020091D088047F6FF7025
:10173000091D08800020344914310880091D0880E3
:10174000091D0880091D08803548006840F40070B4
:101750004FF0E021C1F804014FF002003149088048
:101760004FF0E020D0F8000140F008004FF0E021F9
:10177000C1F800012448008820F0100022490880A8
:1017800000BF2148008810F0200FFAD000BD1E488D
:10179000008840F010001C49088070471A480088F3
:1017A0004FF6EF71084018490880704700B50246AF
:1017B000FFF7EDFF100C144914310880091D0A8051
:1017C000FFF7ECFF00BD00B50246531CFFF7DFFF3B
:1017D000100C0D4914310880091D0A80180C091DD0
:1017E0000880091D0B80FFF7D9FF002000BD00B560
:1017F0000246FFF7CCFF100C03491C310880091D7D
:101800000A80FFF7CBFF00BD0428004084000020C1
:1018100014040140001002400070004088000020C5
:1018200004E100E000280040034613B109B1022A98
:1018300002D24FF0FF307047D96000201860586026
:101840009A6000BFF7E710B502460B461168491CC5
:101850009068884200D800215068884202D14FF039
:10186000FF3010BD1468D068035511600020F8E700
:10187000024650681368984202D14FF0FF3070471B
:101880005368D068C05C08705068401C5060506855
:101890009368984201D3002050600020EFE7014692
:1018A00008684A68904203D308684A68801A7047FB
:1018B00088684A68801A0A681044F8E70020022005
:1018C000C143404A11603F494C3109683E4A11808A
:1018D0003E490968128811443C4A11603C49098814
:1018E000491C3B4A11801146098864290BDB002101
:1018F0001180364909686422B1FBF2F1354A116062
:101900000021324A116070472E480830006840F4C8
:10191000A0002C4908310860704710B50121480229
:10192000FFF7D8FA2748001D00682B4908402549D1
:10193000091D0860084600680860081D00682749FE
:1019400008402049083108600846006840F46020DB
:10195000086000201B492C3108601A4810300468C8
:1019600024F0E06444F040740460164834300468A5
:1019700024F01F0444F00804046012480830006892
:1019800040F001000F49083108600846006840F047
:101990000800086000BF0B480830006810F0080F0E
:1019A000F9D108480830006840F0040005490831C2
:1019B000086000BF03480830006810F0040FF9D138
:1019C00010BD000000240140AC000020B400002045
:1019D000B8000020B0000020FFFEF0FFFDF7F1FF8F
:1019E0002DE9F04104460D4616461F46DDF81880E5
:1019F000BB48C06940F48020B949C861B948006853
:101A000020F47F40B74908600846006840F4306021
:101A100008600846006840F400400860B14808309B
:101A2000006840F40060AF4908310860AE48C0F873
:101A3000008004EBC40000EB0410A900B0FBF1F03F
:101A40006421B0FBF1F104EBC40000EB0410AA0028
:101A5000B0FBF2F004EBC40202EB0412AB00B2FBE9
:101A6000F3F26423B2FBF3F202EBC20303EB0212C4
:101A7000A0EB8200322202EB00106422B0FBF2F0F5
:101A800061F31F1099490880081D0680001D07801A
:101A9000001F0088091D0880002094490C3108802F
:101AA0009248001D008840F00C009049091D0880F4
:101AB0000846008840F0200008804A158C498D486F
:101AC000FFF7B2FE8948001D008840F0800087497A
:101AD000091D08804A1588498848FFF7A5FE272078
:101AE0000A21002809DA0A074FEA126C844A00F03A
:101AF0000F031B1F02F803C003E00A07130E814AFD
:101B0000135400BF272000F01F0201219140420919
:101B10004FF0E02303EB8202C2F8001100BF7348CC
:101B2000001D008840F400507049091D0880BDE880
:101B3000F0816B48C06920F480206949C86172480F
:101B4000006820F4704070490860704770B5044622
:101B50006E4D00BF6948FFF7A2FE68498968491EBB
:101B6000884203D32800A5F10105F3D1214663483B
:101B7000FFF769FE5D48001D008800F080008028A6
:101B800007D05A48001D008840F080005749091DC1
:101B90000880204670BD10B5044603E014F8010B20
:101BA000FFF7D4FF20780028F8D110BD00BF4F48C0
:101BB0000838008810F0200FF9D04C48001F00882A
:101BC000C0B2704738B549480838008810F0280F6F
:101BD0003DD04648001F0088C0B2009042480068CF
:101BE000B0F5806F2ED19DF8004004F00100C4F3E1
:101BF00040010844C4F380010844C4F3C001084410
:101C0000C4F300110844C4F340110844C4F3801124
:101C1000451815F0010F0AD014F0800F17D09DF869
:101C2000000000F07F013348FFF70DFE0FE014F0D5
:101C3000800F0CD19DF8000000F07F012D48FFF7C8
:101C400002FE04E09DF800102A48FFF7FCFD27483B
:101C50000838008810F0800F41D069462748FFF708
:101C600007FE98BB20480068B0F5806F28D19DF82A
:101C7000004004F00100C4F340010844C4F38001B3
:101C80000844C4F3C0010844C4F300110844C4F379
:101C900040110844C4F38011451815F0010F07D016
:101CA0009DF8000040F080001049091F088016E0F0
:101CB0009DF8000000F07F000C49091F08800EE02D
:101CC0009DF800000949091F088008E0FFE7074860
:101CD000001D008820F080000449091D088038BDDF
:101CE00000100240040C0140BC00002008480040E5
:101CF000740C002074100020740E0020841000204A
:101D000018ED00E000E400E00008014000E1F50506
:101D100070B504465A48007880EA040558480470B3
:101D200015F0010F20D0007810F0010F09D000BF8E
:101D300000F0A6FE534AC2E9060101205249C870CC
:101D400012E05148C07878B100BF00F099FE4D49CB
:101D50008969411A4D48C06808184C49C8604FF05D
:101D600000004949C87000BF15F0020F21D0444857
:101D7000007810F0020F09D000BF00F081FE414A48
:101D8000C2E9080101204049087112E03E4800798B
:101D900078B100BF00F074FE3A49096A411A3B4825
:101DA00000690818394908614FF000003649087188
:101DB00000BF15F0020F21D03148007810F0020F5B
:101DC00009D000BF00F05CFE2E4AC2E90A010120E2
:101DD0002D49487112E02C48407978B100BF00F0DD
:101DE0004FFE2849896A411A28484069081827493E
:101DF00048614FF000002449487100BF2048007836
:101E000000F062F870BD10B500F042F800201C49E7
:101E1000087010BD10B504461949097881EA04001C
:101E2000FFF776FF10BD10B515480078C043C4B267
:101E30002046FFF7EFFF4FF4C87009F025FC20465D
:101E4000FFF7E8FF10BD10B500F038F810BD10B571
:101E500004462046FFF75CFF10BD10B50446084954
:101E6000097841EA0400FFF753FF10BD10B504469E
:101E70000349097821EA0400FFF74AFF10BD00007A
:101E8000C000002048120020A812002018120020D4
:101E90001348006820F07060114908600846006827
:101EA00040F0807008600846006820F070400860CC
:101EB0000846006840F080500860704708480830C5
:101EC000006800F04000704720B14021044A1432FD
:101ED000116003E04021024A103211607047000097
:101EE000000C014010B5002807DA0A07140EFB4A5F
:101EF00000F00F031B1FD45403E00A07130EF84A27
:101F0000135410BD70B504460D460AF0FEF970BDBD
:101F100010B51020F349086000BF00F0B1FD044681
:101F200000BFF0480C38006810F0400F07D000F0F8
:101F3000A7FD0A216118401A00B20028F1DB00F069
:101F40009FFD0A216118401A00B2002803DB5721C7
:101F5000E5A00BF075FA00BF10BD1020E149091F84
:101F60000860704710B50446FFF7CEF92146E748F0
:101F7000FFF75EF90446204610BD2DE9F041054605
:101F80000E46174605B90EB1002F02DC0120BDE850
:101F9000F08165B9002407E0FFF7B6F9315DDB4851
:101FA000FFF746F98046641CBC42F5DB19E066B9D0
:101FB000002407E0FFF7A8F90021D448FFF738F91B
:101FC0002855641CBC42F5DB0BE0002407E0FFF75A
:101FD0009BF9315DCD48FFF72BF92855641CBC42B5
:101FE000F5DB0020D3E768B30821C94A1160C9496D
:101FF0008968C84A9160C6491439096821F0080106
:10200000C34A143A1160111D096821F00801121D1C
:102010001160111F096841F00801121F1160111DA4
:10202000096841F00801121D1160111D096841F095
:102030000801121D1160111D096821F00801121D0F
:1020400011602CE00821B24A1160B2498968B14A96
:102050009160AF491439096821F00801AC4A143A7B
:102060001160111D096821F00801121D1160111F76
:10207000096841F00801121F1160111D096841F043
:102080000801121D1160111D096821F00801121DBF
:102090001160111D096841F00801121D116070479F
:1020A00078B301219A4A11609A49896841F0010187
:1020B000984A916096491439096821F00101944ABF
:1020C000143A1160111D096821F00101121D1160FF
:1020D000111F096841F00101121F1160111D0968EB
:1020E00041F00101121D1160111D096841F001014B
:1020F000121D1160111D096821F00101121D1160EE
:102100002FE0FFE70121824A11608249896841F08E
:102110000101804A91607E491439096821F001016A
:102120007B4A143A1160111D096821F00101121D4A
:102130001160111F096841F00101121F1160111D8A
:10214000096841F00101121D1160111D096821F09B
:102150000101121D1160111D096841F00101121DDC
:102160001160704710B5082069490860092000F027
:10217000EAF809210846FFF7B5FE092000F0CEF87D
:1021800010BD10B5092000F0D5F810BD10B5012024
:102190005F490860062000F0D6F809210620FFF705
:1021A000A1FE062000F0BAF810BD10B5062000F020
:1021B000C1F810BD4B480C380068C0F3C000704730
:1021C0005548006800F0010070470020704710B5C6
:1021D0000120FEF7C3FF43481438006820F4702044
:1021E0004049143908600846006840F440300860EF
:1021F0000846006820F4700008600846006840F453
:10220000300008600846006820F0706008600846EA
:10221000006840F0306008600846006820F07040B8
:1022200008600846006840F0304008603A480838C6
:10223000006820F0F0003849083908600846006856
:1022400040F010000860022033490C31086042F26F
:10225000107009F019FA02202F4908310860FFF7C1
:1022600053F82D480838006820F00F002A49083933
:1022700008600846006840F00400086019481438F7
:10228000006820F470401749143908600846006857
:1022900040F480400860FFF760FE00BF00F0F0FBF4
:1022A000044600BF0F480C38006810F0400F07D1FB
:1022B00000F0E6FB64216118401A00B20028F1DB4F
:1022C00000F0DEFB64216118401A00B2002803DB35
:1022D000E22105A00BF0B4F800BF10BD18ED00E03E
:1022E00000E400E014080140415243483A20546998
:1022F0006D656F75742065786365656465642069D4
:102300006E206C696E65202564210A000030014052
:102310001404014000000140080C014000F01F02BD
:102320000121914042094FF0E02303EB8202C2F801
:102330000011704700F01F0201219140064A430935
:1023400042F82310704700F01F0201219140034A18
:10235000430942F82310704780E100E080E200E08A
:1023600001460A48826C0A60C06C486070471A20B7
:1023700070470648B0F8520070470448B0F854005F
:102380007047024890F8560070470000D8030020BC
:1023900070477047704770477047000070B59249AA
:1023A000096819B90021914A116019E009F069F929
:1023B0008D490C68D4E9001211440D1AA4680AE092
:1023C000D4E900121144091AA94203D2D4E9001237
:1023D00011440D1AA468002CF2D14119834A1160EE
:1023E00070BD10B5824800F087FA10BD2DE9F047A6
:1023F00005460E4690464FF00109288810B159282D
:102400005DD109E000207849086057E000BF4FF037
:1024100000095920288000BFB9F1000F02D1012026
:10242000BDE8F08700BF872E21D1404604E06E4909
:10243000096889686C4A11606B49096821B16A4969
:102440000968C9688142F2D06749096871B1664973
:102450000C6808E0A168C968814203D1A168896855
:10246000A16000E0A468A1680029F3D126E0822ED3
:1024700000D023E000BF00275B4804681BE0204633
:1024800000F071FAA8B122468821E06800F002FA53
:1024900068B90020E06017B1A068B86002E0524956
:1024A000A06808600020A060FFF778FFE3E7FFF76F
:1024B00098FF2746A468002CE1D100BFA6E74FF0A3
:1024C0000009002028800320AAE770B50446FFF722
:1024D00088FFE06868B14448056808E0A54205D176
:1024E00044480068E060FFF759FF70BDAD68002DFB
:1024F000F4D140480068E0603B480068A0603A487A
:102500000460FFF74BFF00BFEFE770B504460D46D0
:102510002946204600F014FA2046FFF7D6FF70BD8A
:1025200070B504460D46204600F012FA656020465C
:10253000FFF7CBFF70BD10B50446204600F008FA47
:102540002046FFF7C2FF10BD10B50446204600F03C
:1025500004FA2046FFF7B9FF10BD70B504460D46DA
:10256000206828442060FFF719FF70BD0146C86845
:1025700008B9012070470020FCE70146D1E90002BC
:10258000104470470146086870471748006808B152
:10259000012070470020FCE700B5FFF7F6FF10B1FF
:1025A0001248006800BD0020FCE770B505460E48E3
:1025B0000068854207D10C48006880680A490860B5
:1025C000FFF7ECFE0CE00848046800E0A46814B1D2
:1025D000A068A842FAD11CB1A868A060FFF7DEFE8F
:1025E0000020A860E86070BDD4000020D800002062
:1025F000C4000020E0000020C5480078C4490978E4
:10260000491CC34A117070470146887B08B10120FC
:1026100070470020FCE72DE9F04104460E46BD4816
:102620000768BD48056800E02D68A54201D0002D6F
:10263000FAD10DB9BDE8F0812046FFF7E5FFD0B132
:102640000020A073B448056807E0AC4204D02246DD
:102650008721284600F02AF82D68002DF5D1A068C2
:1026600048B1B44207D0AB4804600022832104F192
:102670000C00A3689847A8480068844205D1A64882
:1026800000680068A44908600CE0A348056806E0FB
:102690002868A04202D12068286002E02D68002D41
:1026A000F6D100BF9B48076000BFC3E72DE9F041AA
:1026B00004460E461746A07B10F0010F19D0A06803
:1026C000B8B1944804600220A0733A46314604F140
:1026D0000C00A36898470546022D03D0032D01D0B6
:1026E000832E04D121462046FFF795FF01E001200B
:1026F000A073BDE8F0812DE9F04104460D46164671
:1027000084480768324629462046FFF7CFFF8148B4
:102710000760BDE8F08170B504460E467E48056846
:1027200000E02D68A54201D0002DFAD1A54200D1CC
:1027300070BD794800682060774804600120A0736C
:102740000020A081324681212046FFF7D4FF00BF40
:10275000EEE710B504466F4801682046FFF75BFFBF
:1027600010BD8A206A49087000206C4908706C49C5
:1027700008706949086067490860704710B5002013
:1027800068490870644804680BE0E07B40B10120B0
:10279000A0730020E073002282212046FFF786FF0D
:1027A0002468002CF1D110BD10B55D4800780028D8
:1027B0005BDD5A48007800EB40005B4911F82000CF
:1027C0005A4908705548007800EB4000564901EB23
:1027D00080004068564908605048007800EB40008F
:1027E000514901EB80008068524908604B490978E3
:1027F000481CC11700EBD1614911A0EB4111474AB8
:10280000117047480078401E4549087049480068E3
:10281000D8B9414800684849086011E0414800784B
:1028200008B1FFF7ABFF42480268404801784248D0
:102830000068FFF73BFF4048006800683E490860B9
:102840003D4800680028E9D10FE038480078812829
:1028500003D1012037490968887335480268334835
:10286000017834480068FFF721FF10BD10B52D48EE
:10287000007808B1FFF782FFFFF796FF284800783D
:1028800028490978084410BD254800782549097869
:102890000844704730B5034621480078202801D10C
:1028A000012030BD1D4C24781D4D2D782C44E0B204
:1028B000C41700EBD4646411A0EB44141F4D2C70BA
:1028C0002846007800EB4000174C04F820102846FA
:1028D000007800EB400004EB80004260284600785E
:1028E00000EB400004EB800083600D480078401C42
:1028F0000B4C20700020D4E748B1817B012902D025
:10290000817B022903D10121C173064A11707047EE
:10291000F5000020E0000020DC000020F70000208F
:10292000F6000020F800002094100020E4000020B1
:10293000E8000020EC000020F0000020F40000205F
:1029400070B504460D46656008F09BFE206070BDC2
:10295000D0E9001211440160704710B5044608F038
:1029600090FE206010BD70B5044608F08AFE216814
:10297000401A451C6068A84201D2012070BD0020A9
:10298000FCE710B5044608F07CFED4E900121144BF
:10299000081A10BD10B500F0BDF810BD2DE9F05FAC
:1029A000044615461E460AAF97E880074FF0000B15
:1029B0001848006808B94FF0010BC4F80890C4F833
:1029C0000CA0C4E9005613480460BBF1010F03D109
:1029D0002846314600F0DAF80020BDE8F09F10B537
:1029E0000C48006800B910BD0A4804680020094975
:1029F00008602046D4E9022190470648006830B1BB
:102A000004480068D0E90021104600F0BFF800BF7C
:102A1000E9E70000FC00002070B504460D46656043
:102A200008F03CFE206070BDD0E900121144016046
:102A3000704710B5044608F031FE206010BD10B597
:102A4000044608F02BFED4E900121144401A6FF03E
:102A50000041884201D2012010BD0020FCE710B5E2
:102A6000044608F01BFED4E900121144081A10BDF8
:102A700010B5044608F012FE2168401A10BD00008F
:102A800030B500BF474C002120680023226880EA4F
:102A9000020481EA03052C43F4D130BD10B54FF098
:102AA0008040008A10F0010F2AD04FF6FE704FF0E0
:102AB000804108823B480068401C3A49086000BFDA
:102AC000FFF7DEFF384AC2E9040101203749887068
:102AD00000BFFFF784FFFFF7D7FE3448807878B156
:102AE00000BFFFF7CDFF30490969411A30488068BF
:102AF00008182F4988604FF000002C49887000BFEB
:102B000010BD00EB8001480000BF0100A0F10100F2
:102B1000FBD1704710B52748C06940F00100254936
:102B2000C861254800682549B0FBF1F0401E090640
:102B300008854FF47A7088850020088088800120FD
:102B400088811C200921002807DA0A07140E1C4A74
:102B500000F00F031B1FD45403E00A07130E194A99
:102B6000135400BF1C200121814042094FF0E02393
:102B700003EB8202C2F8001100BF4FF080400088D2
:102B800040F001004FF08041088010BD70B5044650
:102B90000D4622462B460CA00AF052FC4FF0804115
:102BA0008C8570BD0001002048120020A812002072
:102BB00018120020001002404800002040420F0080
:102BC00018ED00E000E400E07274696D65725F6109
:102BD0007263685F7363686564756C652074696DA2
:102BE000652025750A0000002DE9F04705460E46D0
:102BF00017464FF00108288810B14A2842D116E044
:102C00006F48006800F0E7F8044604E0201DA16862
:102C1000FFF77BFC2468002CF8D10120694908707B
:102C20002FE000BF4FF000084A20288000BFB8F115
:102C3000000F01D0882E02D00120BDE8F08700BF30
:102C40005F48006800F0C7F8044617E0201DB8424E
:102C500013D121465A48006800F0D0F85A48D0F8FD
:102C60000090594960690860A06910B1D4E9061064
:102C700088475548C0F8009002E02468002CE5D150
:102C800000BFCEE74FF00008002028800320D4E7E3
:102C900010B500204B4908704948006800F098F8CA
:102CA00000214A48FFF737FD10BD2DE9F0470446E3
:102CB0000D4616461F46DDF82080C4F81480A66134
:102CC000E7614048007868B13F48D0F800903F483D
:102CD0003D4908602946201DFFF717FC3A48C0F817
:102CE000009000E0A56021463548006800F0A0F89B
:102CF000BDE8F087F8B504460D4616461F46324833
:102D000000683B463246294600902046FFF7CDFF3B
:102D1000F8BD70B504462B48007850B12A480568C4
:102D20002A4829490860201DFFF705FC2648056050
:102D300000BF21462248006800F07AF870BD70B5E7
:102D400004462048007850B11F4805681F481E49B6
:102D50000860201DFFF7F8FB1B48056000BF2146F7
:102D60001748006800F064F870BD10B504461548B7
:102D7000007818B1201DFFF718FC02E00021E16087
:102D8000216121460E48006800F038F810BD70B58A
:102D900005460C48007818B1281DFFF7E7FB70BD09
:102DA0000748006800F017F8044604E0AC4201D17F
:102DB0000020F4E72468002CF8D10120EFE70000A0
:102DC000080100201C010020E00000200C01002070
:102DD0000021016070470146086870470A68026078
:102DE00070470246106808B900207047116800E07B
:102DF000096808680028FBD10846F6E710B50246C6
:102E00000B46146804B910BD002110680CE098420C
:102E100008D111B90468146001E004680C60002452
:102E20000460F0E7014600680028F0D100BFEAE73F
:102E300070B505460C4621462846FFF7DFFF002007
:102E400020602846FFF7CDFF06460EB92C6000E053
:102E5000346070BD30B504460D4629462046FFF764
:102E6000CDFF20682860256030BD0246106808B993
:102E7000002070471068006820B9116800201060B9
:102E80000846F6E7116800E009680868006800284D
:102E9000FAD10B6808601846EBE7014608680A6833
:102EA00012B10A6812680A607047014600200A6879
:102EB00001E0401C1268002AFBD1704770B506463D
:102EC0000C46154624B929463046FFF7C3FF02E0F9
:102ED00020682860256070BD014609B90020704750
:102EE0000868FCE710B50446618860680AF031FAAA
:102EF0002288638802FB03F1A0680AF02AFA10BD59
:102F0000014600220DE04868805C48B94868805C52
:102F1000401C4B6898540B88886802FB030070477C
:102F2000521C48889042EEDC0020F8E730B502469B
:102F30000B469468002110E09C420BD15068405C25
:102F4000002804DD5068405C401E55686854506895
:102F5000405C30BD10880444491C50888842EBDC3A
:102F6000FF20F6E710B502469068884208D85388DB
:102F70001488906803FB0400884201D9012010BD29
:102F80000020FCE701460020002204E04B689B5C27
:102F900003B9401C521C4B889342F7DC704710B5B4
:102FA000044620460AF0A6F910BD10B50AF098F9BB
:102FB00080B210BD10B58AB008F070FB044613480B
:102FC000C06A1249896A114AD269104B9B69CDE9DE
:102FD0000632CDE908100D48416900690B4AD268F4
:102FE0000A4B9B68CDE90232CDE9040107484068ED
:102FF00006490968CDE90010054842780178234662
:1030000004480AF01DFA0AB010BD00001812002092
:10301000D702002014D90008F0B50B461446194613
:103020001E19751E0BE04E780F7806EB0726B2B21C
:103030008618B0B2904201DA461CB0B2891CA9428F
:10304000F1D3A9420AD10E78002707EB0626B2B2C7
:103050008618B0B2904201DA461CB0B2F0BD01460B
:10306000080240EA212080B2704770B504460D4640
:103070002A4621460020FFF7CFFF0646FFF7EFFF65
:1030800070BD10B52822FA490020FFF7C5FF04469D
:1030900014B94FF6FF7010BD2046FFF7E0FFFAE7C6
:1030A00038B50446F2484079F149097900EB01202E
:1030B000F0490978401A80B20090BDF80000204421
:1030C00085B22022EA4908312846FFF7A5FF0546C8
:1030D000E84800782830E64A8118BDF800202846E4
:1030E000FFF79AFF054615B94FF6FF7038BD284621
:1030F000FFF7B5FFFAE710B53A20FFF7D1FF10BD93
:1031000010B51120FFF7CCFF10BD10B500F054FE34
:1031100003F0F2FA01F052F94FF48060D6490880CA
:103120000020D64908700BE00020D549D34A127818
:1031300001EB42110882D1480078401CCF49087049
:10314000CE4800780A28EFDB10BD10B5C9480078DA
:1031500000282FDDC74800782830CA4909888842EE
:1031600005DD0020C7490880C249087010BDC54868
:1031700000882838BF4B1B78C21ABD482830BD4B89
:103180001B78C1180AF0BEF8BE480088B949097812
:10319000401ABC490880084600882838000AB4490B
:1031A0000871B84800782838C1B2B1484171002090
:1031B000B049087000BFD9E770B505460E4600BF9C
:1031C000AD480088401CAC49088008460088B0F52E
:1031D000FA4F02DB4FF4805008800020A7490870A6
:1031E00011E0A5480088FFF73AFFA549A34A1278E5
:1031F00001EB4211098A884200D1E1E79F4800783B
:10320000401C9E4908709D4800780A28E9DB00248C
:1032100000209A49087011E099489849097800EB14
:103220004110008A28B996489449097800EB411466
:1032300008E092480078401C904908708F48007858
:103240000A28E9DB00BF0CB9002070BD8A4800786D
:1032500000028949098840EA2120208266822DB92E
:10326000002020606060A060E06004E01022294639
:1032700020460AF047F88448007920752046E4E7A4
:1032800010B502208149087075E07A48007828302E
:103290007E49097808447649085C20B1012808D0A5
:1032A00063282ED115E079480078401C77490870D2
:1032B00060E07048007828307449097808446C4907
:1032C00008444078801C7149097808446F490870A7
:1032D00050E06E48007804F0BDF808B1012010BD40
:1032E00064480078283069490978084460490844EE
:1032F0004078801C654909780844644908700020BA
:10330000EDE75C480078283060490978084458495E
:10331000085C10F0C00006D0402805D080280CD0F2
:10332000C02816D102E014E00120D8E75048007E02
:10333000FF2801D10120D2E700BF4E480078283095
:103340005249097842180221042002F0EDFF0220C0
:10335000C5E700BF4748007828304C490978084441
:10336000434908444078801C484909780844474943
:10337000087000BF00BF3F48007828303C4908442F
:103380004078082101EBC0004049097888423FF7A6
:103390007CAF0020A3E710B50446042C00D150E315
:1033A00033483C303A4908603A490860032C00D061
:1033B00000BF052C18D138480068008A98B1002059
:1033C000364908602A483030314908603149086080
:1033D0000020334908802B490880082031490870B3
:1033E00003F096FE2DE38CE32148007800F0F00016
:1033F000602803D02CA0FDF74DF982E31C484079EA
:103400001B49097900EB01201E490988884209DC23
:10341000174840791649097900EB012028301949ED
:10342000088003E026A0FDF735F96AE31048007A2A
:10343000FF2800D165E30E48801D2D49086000205B
:103440000C4908702B49087029480068007860B959
:103450000846007840F001000870FFF711FF28B11E
:1034600001285FD002285FD15DE05EE044E000000B
:10347000B412002021010020460100204401002058
:10348000B417002038010020041900202201002078
:1034900030010020340100204801002040010020BC
:1034A0003A0100203C010020697076363A20696EAE
:1034B00076616C69642076657273696F6E2E0000A8
:1034C00069703A207061636B65742073686F727401
:1034D0006572207468616E207265706F72746564C5
:1034E00020696E204950206865616465722E000075
:1034F0002C01002020010020F84800782830F849ED
:103500000844F8490860F54800782830F449084430
:103510004078082101EBC000F04909780844EF49E0
:10352000087001E0EDE2E8E200BFED48183000F07D
:1035300050FD002870D1EA48183000F0B0FC002897
:10354000F8D1E748007EFF2867D0E548007EFE28D6
:1035500003D1E348407E80285FD0E148007AFE280E
:1035600003D1DF48407A802857D0DD480089A0B9D0
:10357000DB48408988B9DA48808970B9D848C08961
:1035800058B9D748008A40B9D548408A28B9D448A4
:10359000808A10B9D248C08A98B3D148008BD0B97C
:1035A000CF48408BB8B9CE48808BA0B9CC48C08BEF
:1035B00088B9CB48008C70B9C948408C58B9C84804
:1035C000808C40B9C64890F8260020B9C44890F8CD
:1035D0002700012821D0C4480088B0F5A06F06DD7F
:1035E0004FF4A0620021022002F09EFE85E2BC485A
:1035F000C079012806DC00221146032002F094FE67
:103600007BE20AE004F04CF800B17AE2B448C079F9
:10361000401EB349C87170E24DE0B148007AFE28FF
:1036200048D1AF48407A802844D1AD480089A0B93C
:10363000AB48408988B9AA48808970B9A848C08930
:1036400058B9A748008A40B9A548408A28B9A44873
:10365000808A10B9A248C08A60B3A148008BD0B953
:103660009F48408BB8B99E48808BA0B99C48C08BBE
:1036700088B99B48008C70B99948408C58B99848D3
:10368000808C40B9964890F8260020B9944890F86C
:10369000270001280ED09248007EFF280AD09048CB
:1036A000183000F072FC28B900220221012002F03B
:1036B0003BFE22E225E2BCE08A48006800782C2824
:1036C00073D005DC68B1112809D02B286ED173E0C6
:1036D0003A2805D03B286AD03C28F7D12FE0E2E019
:1036E000B4E08248007810F0010F00D0A2E07F48DB
:1036F000007840F001007D490870FFF7C1FD20B15E
:10370000012818D0022818D116E074480078283013
:10371000734908447349086070480078283070493C
:1037200008444078082101EBC0006C49097808443E
:103730006A49087001E0E4E1DFE100BF78E06B482E
:10374000007810F0020F0CD06848007810F0400F9D
:1037500000D06FE06548007840F040006349087091
:1037600005E06248007840F0020060490870FFF709
:1037700087FD20B101281BD002281BD119E0574832
:103780000078283056490844564908605348007864
:103790002830534908444078082101EBC0004F49C4
:1037A000097808444D49087004E03BE03FE03DE003
:1037B000A7E1A2E100BF3BE04C48007810F0040F05
:1037C00000D037E04948007840F0040047490870CD
:1037D00042480078283042490844C07800280BDD70
:1037E0003E48007800F12A020021042002F09CFDEE
:1037F0003FA0FCF74FFF80E1384800782830384977
:10380000084438490860354800782830344908446D
:103810004078082101EBC0003049097808442F495D
:10382000087005E03AA0FCF735FF6AE169E101E0C4
:1038300000BF41E72B4800682949421A01210420B2
:1038400002F072FD38A0FCF725FF56E1FFF753FCAC
:10385000A0F57F41FF3903D03AA0FCF71BFF50E1F0
:103860001E49097828311E4A505C03F03FFB1B4A71
:10387000127828321A4B1A445178184A1278283292
:10388000985C02F086FC012807D134A0FCF702FF07
:103890000020154908801149087013480088002845
:1038A00000DD2AE12DE1FFF750FC0F480088303899
:1038B0000D4908800A483030304908603038C08DE2
:1038C00030B1FFF71DFCA0F57F41FF3900D018E1B2
:1038D0000348408D00B914E152E0000021010020AE
:1038E000B41200202C01002038010020200100200B
:1038F0006970363A20756E7265636F676E697A65B6
:103900006420726F7574696E672074797065000049
:1039100069703A20667261676D656E742064726FBB
:10392000707065642E0000006970363A20756E7202
:1039300065636F676E697A65642068656164657246
:103940000000000069636D7076363A206261642081
:10395000636865636B73756D2E00000069636D703D
:10396000363A20756E6B6E6F776E2049434D5076F8
:1039700036206D6573736167652E0000300100208D
:103980008C488D49086044E08B480068008AD0B3B9
:103990008A48408D88490968098A884234D1864816
:1039A0000068408A30B18548008D83490968498A9A
:1039B000884229D1804800680088D8B97E480068CC
:1039C0004088B8B97C480068808898B97A4800680F
:1039D000C08878B978480068008958B97648006886
:1039E000408938B974480068808918B972480068FD
:1039F000C08938B11022704801687048083009F059
:103A0000B3FC00B90BE0FFE76B48006820306A495F
:103A10000860694801686A488142B5D371E00020B6
:103A20006849086002206849087064483030674976
:103A300008606749086000206649088003F068FB59
:103A400000BF6448008800B95BE0624800883030FD
:103A500061490880084600882838000A57490871DB
:103A60005D4800782838C1B2544841715248006816
:103A7000007D5249C871112088715648008808306D
:103A8000C0F3072153480078083041EA002081B292
:103A90004A4881850021C18547480068008A474916
:103AA000088545480068418A4448418510224248BB
:103AB00001684248183009F025FC40491831A1F14D
:103AC000100000F05EFB3D483C3040490860FFF7C5
:103AD00017FBC04381B23948C185C08D18B94FF674
:103AE000FF713648C18503F0BDFF00BF6020334938
:103AF000087000204870488000BF002032490870DC
:103B000010BD0020344908803449087034490870D9
:103B10002D49087000BFF3E70146C1F3072040EAD2
:103B20000122080C00020B0C40EA232062F31F4024
:103B3000704770B504460D4625480068A8B1244872
:103B400001681E483C30081A40F2C441081AA842D5
:103B500001DD284607E01E48016818483C30081A75
:103B600040F2C441081A064608E040F2C4408542CB
:103B700001DA284601E040F2C4400646002E17DD77
:103B800014490E8012480068844211D01048006821
:103B900038B908460288214608483C3009F0B2FB93
:103BA00006E00C48028821460948006809F0AAFB93
:103BB00070BD0000B417002048010020B41200209E
:103BC000F4180020400100203C01002030010020BA
:103BD000340100203A01002038010020210100209A
:103BE000200100202DE9F0470646884617469946F1
:103BF000DDE908A50020286034460EE0207850B1A9
:103C00004FEAEA024946A01C09F0AEFB20B92C603D
:103C10000020BDE8F0872C603C4408FB0760A04210
:103C2000ECD8286808B10120F3E70220F1E71CB5C1
:103C30000446FE48802123461222CDE900100621C9
:103C4000FB48FFF7CFFF01280CD1F849096808703D
:103C500010222146F5480068801C09F053FBF34808
:103C600000681CBD0020FCE77CB504460D461646E6
:103C7000F048802123462022CDE900100421EC48A1
:103C8000B638FFF7AFFF012839D1EA490968087053
:103C900010222146E7480068801C09F033FBE54804
:103CA0000068C67425B90120E2490968087509E071
:103CB0000020E049096808752946DE480068183088
:103CC000FEF7AAFE0120DB4909688874FF20DA4963
:103CD000087002204870002048808880C8800881D1
:103CE00088720120C872FF200873607B4873E089E6
:103CF000C8810846FFF79BFFCE4800687CBD0020C6
:103D0000FCE70A6882604A68C260027A82F00202B6
:103D1000027270472DE9FC4704460D4616461F46C1
:103D2000DDE90A89C548234620220421CDE9005057
:103D3000C348FFF757FF01281ED1C0490968087022
:103D400010222146BD480068801C09F0DBFABB4800
:103D500000688574B9480068C674B8480068077779
:103D6000B6480068C0F81480B4480068C0F81890DD
:103D7000B2480068BDE8FC870020FBE710B5FFF7FC
:103D800014F94FF6FF7101EA0024FFF70EF9204401
:103D9000A749CE39896801EB5101A54ACE3A92680C
:103DA000A1EB5201B0FBF1F201FB1200A049CE39A8
:103DB000896800EB510010BD1CB502F025FF02F030
:103DC00067FD80219E4809F0C4FA4FF49E7198481F
:103DD000CE3809F0BEFA20209A49087018209A4976
:103DE00008704FF4A0609249CE39086040200871F5
:103DF00047F230508860FFF7C1FF8D49CE39C86067
:103E00004FF47A7008610020087500BF48F2FE0088
:103E100089490880002048808880C88000BF0090C1
:103E200003460246402101908348FFF773FF87490C
:103E30008148FFF766FF012200217F48FFF714FF4A
:103E400000BF40F2FF207C49088000204880888025
:103E5000C8800881488188814FF48070C88100BF84
:103E60000846FFF7E4FE00BF40F2FF2072490880D9
:103E7000002048808880C8800881488188814FF46C
:103E80000070C88100BF0846FFF7D1FE0C217048C2
:103E9000FEF73BFB1CBD08B10021017070471CB54B
:103EA00004466248802123461222CDE900100621F3
:103EB0005F48FFF797FE10B95C4800681CBD002002
:103EC000FCE710B50446F4B1FF205B4908700220FE
:103ED0004870002048808880C8800881887201204E
:103EE000C872FF200873E07B4873208AC8810846A7
:103EF000FFF7D5FF4D49086018B108460068FFF785
:103F0000CAFF0020207010BD10B54948B638494995
:103F1000086016E047480068007868B145480068C6
:103F2000007D48B9434800681830FEF788FD18B195
:103F300040480068FFF7C5FF3E48006820303D4913
:103F400008603C4801683A4836388142E2D302F0C2
:103F500029FE02F000FF3E48FEF7EDFA10BD08B161
:103F60000021017070477CB504460D463348234656
:103F700020220421CDE900503148FFF733FE10B96B
:103F80002E4800687CBD0020FCE710B504462C4894
:103F90002A49086015E029480068007860B1274880
:103FA0000068807CC210214624480068801C09F00B
:103FB000DBF908B9012010BD2048006820301F49F6
:103FC00008601E4801681E4880308142E3D300200B
:103FD000F1E71CB504461748802123462022CDE98D
:103FE000001004211248B638FFF7FCFD10B9114843
:103FF00000681CBD0020FCE701460D48B6380D4A9C
:10400000106031E00B480068007840B3481C04D0D1
:1040100008480068807C884221D106480068807882
:10402000FE281CD103480068C07813E0640100201A
:10403000D219002060010020C01A00206C0100206D
:10404000401A00205C0100205D01002023010020B7
:10405000F4180020802802D1754800687047744821
:1040600000682030724A10607148026871488242CC
:10407000C8D30020F2E701466E4880386C4A1060D1
:104080001CE06B480068007898B1481C04D0684870
:104090000068807C88420CD1654800688078FE28E2
:1040A00004D163480068C078802802D06048006866
:1040B00070475F48006820305D4A10605C480268C5
:1040C0005C488242DDD30020F2E71CB504465A4822
:1040D000802123461222CDE9001003215548FFF725
:1040E00081FD01280CD1544909680870102221462D
:1040F00051480068801C09F005F94F4800681CBD54
:104100000020FCE708B10021017070471CB504468F
:104110004948802123461222CDE900100321454859
:10412000FFF760FD10B9444800681CBD0020FCE7A3
:10413000F0B502460B46002000211EE0565C5F5C95
:10414000BE4203D100F10806F0B214E0565C5F5C99
:1041500086EA070500240AE015F0800F04D1461C0A
:10416000F0B26E06350E00E003E0661CF4B2082CD7
:10417000F2DB00BF03E04E1CF1B21029DEDB00BF12
:10418000F0BD2DE9F04104460D464FF00008002631
:1041900000272878FE2802D16878802831D0287836
:1041A000FF282ED0234880382149086023E020488A
:1041B00000680078D0B11E480068807C012815D1C5
:1041C0001B4800688078FE2804D119480068C07830
:1041D00080280BD016480168891C2846FFF7A8FFE5
:1041E0000646464502DBB04611480768104800689D
:1041F00020300F4908600E4801680E488142D6D32E
:1042000003E00120FFF7F8FE074657B900BF002082
:1042100020806080A080E08020816081A081E0819A
:1042200004E01022B91C204609F06CF8BDE8F081CA
:10423000600100209C19002068010020017002220A
:1042400042705F4A1368C0F802305268C0F8062016
:104250000022C0F80A20C281704770B505460E469C
:104260001446002057490870602057490870002004
:10427000487048803A208871FF20C871B6B9087626
:10428000022151484176002141838183C183018409
:1042900080F82210012180F82310FF2180F82410DB
:1042A000617B80F82510E189C18405E01022314648
:1042B0004548183009F026F8872142480078283010
:1042C000414A115400213F48007828301044417081
:1042D0003C4800782C3011503A4909782C3111446F
:1042E000081D1022214609F00DF8002036490871FA
:1042F0002046FFF76EFE00283AD135B1102229463C
:104300003148083008F0FEFF05E02F491831A1F1CF
:104310001000FFF736FF2C480089D0B92A484089A1
:10432000B8B929488089A0B92748C08988B92648E2
:10433000008A70B92448408A58B92348808A40B915
:104340002148C08A28B90020204908801D490870EA
:1043500070BD28211C4841711A4909784031024634
:1043600088180121FFF76AFF50201849088012E0E1
:1043700000BF002014490881002113484181818138
:10438000C181018241828182C18200BF18214171B5
:1043900040200E49088000210A48007828300A4A47
:1043A00010444180FEF7A7FEC04381B20548007863
:1043B0002830054A1044418000BFC9E7704700001B
:1043C0002301002021010020B41200203801002028
:1043D00010B50024F6488179022006F000F9F4486F
:1043E0008079112807D1F248048D408DA0421ADA55
:1043F000EF48448D17E0EE488079062807D1EC4855
:10440000048D408DA0420EDAE948448D0BE0E84867
:1044100080793A2807D1E64890F82900E44991F8D4
:10442000281040EA0124A1B2012006F0D8F810BDFE
:1044300070B50546002418E004EB8400DD4911F84E
:104440001000012810D104EB8401DA4A02EB41018B
:10445000881C0822294608F087FF28B904EB84004D
:10446000D44901EB400070BD641C012CE4DB00204A
:10447000F9E70246002113E001EB8100CD4B13F870
:10448000100001280BD101EB810003EB40004078C4
:10449000904204D101EB810003EB40007047491CBE
:1044A0000129E9DB0020F9E710B50346087A147802
:1044B00084F00204A0421FD1487A5478A0421BD154
:1044C000887A9478A04217D1C87AD478A04213D1C0
:1044D000087B1479A0420FD1487B5479A0420BD1BC
:1044E000887B9479A04207D1C87BD479A04203D1BC
:1044F00003209840C0B210BD0889B0B9887AA0B92D
:10450000C87AFF2811D1087BFE280ED1487B60B9FC
:10451000A9480068CC890480A7480068801CA64C84
:10452000206002209840C0B2E5E7A34800688C688C
:104530000460CC684460A048006808309E4C20604D
:1045400001209840C0B2D6E72DE9F04706468946DB
:10455000174698463C1107F00F050F2C01D110208B
:1045600000E0204604460F2D01D1102000E028462F
:1045700005462A46214691A008F062FF002C04DD82
:1045800022464946304608F0BDFE6019102805DA7B
:104590006219C2F11001301908F0DBFE002D15DDA3
:1045A000C5F1100188192A468349096808F0AAFE56
:1045B000022D05D10B2C03DAFF20F072FE203073A0
:1045C0007D48006828447C49086005E0002C03DD34
:1045D00041463046FFF795FB304602F067FE7EA06D
:1045E00008F02EFFBDE8F0872DE9F04780467048BF
:1045F00041797AA008F024FF002708E06C4810F801
:10460000079049467CA008F01BFF781C87B26848D9
:1046100040792830B842F1DC6FA008F011FF7848EB
:104620000068801C644908606025002400217448EB
:104630000068744A1278104481705D481830FFF7A2
:10464000F7FE20B95A480830FFF7F2FE48B16EA0D5
:1046500008F0F6FE44F0800457480068401C5649B4
:1046600008605348007800015149497840EA211018
:10467000C6B2B007000E40EAA6064D48407810F0DA
:104680000F0F1AD14A484088B8B945F0100548487C
:10469000007810F00F0F07D14548407810F0F00F68
:1046A00002D145F0080537E04348006806704248EB
:1046B0000068401C404908602EE03D48007810F03A
:1046C0000F0F1CD13A48407810F0F00F17D145F089
:1046D000080506F0C0003649497801F00F0108438B
:1046E0003549096808703448006831494988A0F89C
:1046F000011031480068C01C2F4908600CE02E48AA
:1047000000682B49096801602B48006806702A4838
:104710000068001D2849086025488079112801D1CA
:1047200045F0040515F0040F09D12148807922498C
:104730000968087020480068401C1F4908601C4830
:10474000C079012804D0402805D0FF2809D105E010
:1047500045F0010510E045F002050DE045F00305C8
:104760000AE01348C07914490968087012480068C3
:10477000401C1149086000BF00BF0D480089A8B95E
:104780000B48408990B90A48808978B90848C0899F
:1047900060B90748008A48B90548408A30B90448DA
:1047A000808A18B90248C08A00B947E04CE000008E
:1047B000B4120020501B0020AC010020556E636F26
:1047C0006D7072657373696E67202564202B2025D8
:1047D00064203D3E200000000A0000006265666F14
:1047E000726520636F6D7072657373696F6E2028D8
:1047F0002564293A200000002530327800000000AE
:10480000780100207C010020495048433A20636F22
:104810006D7072657373696E672064657374206F61
:10482000722073726320697061646472202D20733A
:10483000657474696E67204349440A00EAA008F071
:10484000FFFD44F040044EE0F348FFF7F1FDF3496B
:104850000860F8B1084600684178F1A008F0F0FD62
:1048600044F0C004FE480068FE4909780844807896
:10487000EA490968497840EA0110F9490968F94AA2
:10488000127811448870F84AE3490420FFF70CFEBF
:10489000044328E0E0480838007AFE2817D1DE48B3
:1048A0000838407A802812D1DB480838408B70B92C
:1048B000D9480838808B50B9D7480838C08B30B9F0
:1048C000E94AD5490420FFF7EFFD04430BE000BFA0
:1048D0001022D149E548006808F014FDE34800685B
:1048E0001030E2490860CC480838007EFF287DD1AE
:1048F00044F00804C8480838407E02282BD1C64836
:104900000838408B38BBC4480838808B18BBC24875
:104910000838C08BF8B9C0480838008CD8B9BE48F0
:104920000838408CB8B9BC480838808C98B9BA4867
:10493000083890F8260070B944F00304B6480838E7
:1049400090F82700C94909680870C8480068401CE9
:10495000C6490860B7E0B0480838408B58BBAE483D
:104960000838808B38BBAC480838C08B18BBAA48C5
:104970000838008CF8B9A8480838408CD8B9A6483F
:10498000083890F82400B0B944F00204A24808386E
:10499000407EB64909680870B44801689E48401DC9
:1049A000028BA1F80120807EC870B0480068001D0D
:1049B000AE49086087E098480838408B48BB964865
:1049C0000838808B28BB94480838C08B08BB9248B5
:1049D0000838008CE8B99048083890F82200C0B92F
:1049E00044F001048C480838407E00E01FE09F49F5
:1049F000096808709D4801688748C01C8269C1F831
:104A00000120007F487199480068801D974908601F
:104A100059E000BF1022804910319448006808F026
:104A200071FC924800681030904908604BE07A4869
:104A30001030FFF7FDFC79490860C8B144F0040468
:104A4000874800688749097808448078734909686D
:104A50004978084382490968824A1278114488706B
:104A600042466D4910310020FFF71EFD04432AE045
:104A700069480838007EFE2818D167480838407E0B
:104A8000802813D164480838408B78B962480838C8
:104A9000808B58B960480838C08B38B942465E49A7
:104AA00010310020FFF700FD04430CE000BF10228E
:104AB000594910316D48006808F024FC6B480068C3
:104AC00010306A490860282069490870524808383F
:104AD000807911287ED15048083890F82A000302C6
:104AE0004D480838408D43EA202082B24A480838B1
:104AF00090F828000002484B083B1B8D40EA232019
:104B000081B25CA008F09CFC43480838008D00028C
:104B100041490839098D40EA21204FF6F0710840DB
:104B2000A0F57041B03936D13B480838408D0102BC
:104B300039480838408D41EA20204FF6F07108408E
:104B4000A0F57041B03926D1F320484909680870B2
:104B500055A008F075FC3048083890F82A0001028A
:104B60002D480838408D41EA202050302A49083924
:104B700091F828100902284A083A128D41EA2221A8
:104B800000EB011039490968487038480068801CFA
:104B9000364908600FE12048083890F82A000102E1
:104BA0001D480838408D41EA202000F47F40B0F5D0
:104BB000704F17D1F1202D490968087049A008F0FD
:104BC0003FFC2A48006814490839098DA0F80110F3
:104BD000114800E0FEE0083890F82A0001020E4873
:104BE00008389DE0A8E00000495048433A20636F30
:104BF0006D7072657373696E6720756E737065632F
:104C00006966696564202D2073657474696E672018
:104C10005341430A00000000BC120020A8010020FC
:104C2000495048433A20636F6D7072657373696EC3
:104C30006720737263207769746820636F6E746590
:104C40007874202D2073657474696E67204349441D
:104C5000202620534143206374783A2025640A00BB
:104C6000780100207C01002023010020AC010020FD
:104C700084010020495048433A20556E636F6D709F
:104C80007265737365642055445020706F7274733D
:104C9000206F6E2073656E6420736964653A202509
:104CA000782C2025780A0000495048433A20726544
:104CB0006D6F76652031322062206F6620626F74DE
:104CC0006820736F75726365202620646573742095
:104CD0007769746820707265666978203078464F0D
:104CE000420A0000495048433A206C6561766520CD
:104CF000736F757263652C2072656D6F76652038F1
:104D00002062697473206F6620646573742077690C
:104D100074682070726566697820307846300A00C1
:104D2000408D41EA2020FE490968C870FC480068AF
:104D3000001DFB4908603EE0FA4890F82800000298
:104D4000F849098D40EA212000F47F40B0F5704F0A
:104D50001FD1F220F24909680870F1480068017813
:104D6000F14808F06DFBEF4890F828000002ED498B
:104D7000098D40EA2120EA4909684870E84801683D
:104D8000E848408D4880E6480068001DE449086016
:104D900011E0F020E24909680870E4A008F050FB37
:104DA000DF480068DF49896AC0F80110DC48006804
:104DB000401DDB490860DA480168DA48C08D088088
:104DC000D7480068801CD6490860E0480078083061
:104DD000DE490870DE480068DE4909784554DC4841
:104DE0000068DC49097808444470CD480078D84907
:104DF0000978401AD7490870BDE8F0872DE9F843D3
:104E00000746D3480068D34909780844801CC44940
:104E10000860CF480068CF490978465CCC480068F4
:104E2000CC4909780844457815F0800F07D0CAA00E
:104E300008F006FBBA480068401CB949086016F043
:104E4000100F42D116F0080F22D1CF48B44909689B
:104E5000B1F80120A0F80120C978C170B0480068FD
:104E60000478AF480068001DAD490860C4F38300B2
:104E700040F06000C4490870302000EAA40040EA15
:104E80008410497801F00F010843BF49487045E09C
:104E90006020BD490870A2480068007800F00F004B
:104EA0009F4909680978302202EAA1010843B649FE
:104EB000487008469A490968B1F80110418098483D
:104EC0000068C01C9649086028E016F0080F1FD142
:104ED000934800680078C0F3830040F06000AA495E
:104EE00008708F4800680078C02101EA80108C4962
:104EF00009680978302202EAA1010843A2494870F2
:104F00000020488086480068401C8549086005E00C
:104F100060209D49087000204870488016F0040FFA
:104F20000ED17F48006800789749887108468179DA
:104F300096A008F085FA7A480068401C7849086015
:104F400016F0030F06D006F003009849085C8E495E
:104F5000C87109E07248006800788B49C8717048D0
:104F60000068401C6E490860C5F3011415F0400F3D
:104F70002DD015F0800F07D0754800687549097865
:104F800008448078001100E00020804664B140466B
:104F9000FFF76FFA864908600846006820B985A0C7
:104FA00008F04EFABDE8F8830F2005F030FB81468B
:104FB0008D48025D1CB17E480068801C00E0002026
:104FC00001464B4670480830FFF7BEFA0BE00F2051
:104FD00005F01DFB80468548025D434684496A48CA
:104FE0000830FFF7B1FA05F0030415F0080F1CD0E4
:104FF00015F0040F51D17FA000680090002C0BDD4C
:10500000032C09DA4648006800788DF8010044480E
:105010000068401C424908607748025D00236946E9
:1050200059481830FFF790FA37E015F0040F28D0F0
:1050300015F0800F08D046480068464909780844B2
:10504000807800F00F0000E0002080464046FFF727
:1050500010FA574908600846006818B955A008F0CA
:10506000EFF99FE7102005F0D2FA81465E48025D15
:105070004B464F480168891C43481830FFF764FAD3
:105080000BE0102005F0C3FA80465848025D434605
:1050900057493D481830FFF757FA2C480078283018
:1050A0002A49087016F0040F36D01D4800680078B1
:1050B00000F0F800F0282FD11120334988711848EA
:1050C0000068007800F004081548006801784BA0DB
:1050D00008F0B6F912480068007800F0F300F028F4
:1050E00006D0F12819D0F22818D0F32817D10BE1F7
:1050F00025480B490968B1F801100185084909687C
:10510000B1F80310418590F82A0003021E48408D33
:1051100043EA202082B283E057E193E0C4E035E126
:10512000AC010020B4120020A4D900084950484323
:105130003A2063616E6E6F7420636F6D7072657379
:105140007320686561646572730A00008401002041
:10515000780100207C010020495048433A2043490F
:105160004420666C616720736574202D20696E632E
:105170007265617365206865616465722077697422
:1051800068206F6E650A0000D01A0020495048431D
:105190003A206E6578742068656164657220696E76
:1051A0006C696E653A2025640A00000092D90008F7
:1051B000A8010020736963736C6F7770616E20754E
:1051C0006E636F6D70726573735F6864723A2065A9
:1051D00072726F7220636F6E74657874206E6F7474
:1051E00020666F756E640A0088D9000884D90008AB
:1051F00090D90008FF0200008CD9000849504843AC
:105200003A20496E636F6D696E67206865616465F9
:10521000722076616C75653A2025690A00000000ED
:10522000F74890F828000002F54B1B8D40EA232038
:1052300081B2F4A008F004F9FE480068401DFD4961
:105240000860A7E0FCA008F0FBF8ED48F949096800
:10525000B1F801100185F7480068C07800F570408A
:10526000C0F30721F3480068C07841EA002081B20A
:10527000E348418590F82A000302E148408D43EA63
:10528000202082B2DE4890F828000002DC4B1B8D03
:1052900040EA232081B2F1A008F0D2F8E548006886
:1052A000001DE449086075E0F8A008F0C9F8E1487D
:1052B0000068407800F57040C0F30721DD480068C1
:1052C000407841EA0020CE4908850846D949096856
:1052D0004988418590F82A000302C948408D43EA75
:1052E000202082B2C64890F828000002C44B1B8DD3
:1052F00040EA232081B2D9A008F0A2F8CD48006886
:10530000001DCC49086045E0CA48006840784FF26B
:10531000B00101EB2010C0F30720C64909684978A5
:10532000B02202EB211140EA0120B5490885C148AD
:105330000068407800F00F004FF2B0010844C0F35D
:105340000720BC490968497801F00F01B03140EAF3
:10535000012081B2AA48418590F82A000302A8489A
:10536000408D43EA202082B2A54890F82800000230
:10537000A34B1B8D40EA232081B2CBA008F060F83C
:10538000AC480068801CAB49086003E0D2A008F07C
:1053900057F807E600BFB8F1000F0DD19848A549AE
:1053A00009680988C185A3480068801CA149086074
:1053B000D9A008F045F802E0E4A008F041F8F2486E
:1053C00000780830F049087000BF9A480078EF492B
:1053D0000978401AEE4908708FB904F0FDFFEC49D6
:1053E0000978401AE84909780844A0F128084FEAEA
:1053F000182083490871084680F8058009E0A7F164
:105400002800000A7E490871A7F12800C1B27C4833
:1054100041717B488079112803D1794801468988F8
:10542000818500BFBEE510B504464120D749096813
:105430000870D7480078401CD5490870D3490968DE
:10544000D34A127888182822D24907F05BFFD04847
:1054500000782830CE490870CB4800782830CA49F7
:10546000087010BD70B506460C4615462946204604
:1054700001F05DFCC848006820B1C7480068816839
:1054800020468847C548046070BD10B504462146D3
:10549000102005F0AFF8C24800218268C14890474B
:1054A000FCF778FF10BD2DE9FC4780460020B64987
:1054B0000870B749087004F065FF05F067F8B34954
:1054C00008600421092005F08AF8B348006808B193
:1054D000FEF77EFFB8F1000F04D1B349684604F02F
:1054E0003FFD03E04146684604F03AFDAF480188BD
:1054F000AFA007F0A5FFAD480088002803DB684691
:10550000FFF772F802E06846FFF78DFFA0480178C8
:10551000B2A007F095FF6946102005F06BF8B94975
:10552000086880470646002E00DA1526C6F17D057C
:105530009E48008894490978401A95490978691A63
:1055400088425BDD681F9949098891FBF0F000F102
:10555000010905F08CF8A0F1010A53464A46934828
:105560000188A9A007F06CFFCA4505DAB1A007F0D1
:1055700067FF0020BDE8FC878C480188B7A007F0D2
:105580005FFFC0A007F05CFF814802787F48016898
:105590000068001D07F0B6FE00BF8448008840F494
:1055A0004040000A794909680870804800787749C6
:1055B0000968487000BF00BFBB480088000A7349F3
:1055C00009688870B848007870490968C87000BFD9
:1055D000B5480088401CB44908806D480078001D1B
:1055E0006B49087008460078281A20F00700AF4978
:1055F0000860AD4802880846016859E110E20000E1
:10560000D01A0020495048433A20556E636F6D70A0
:105610007265737365642055445020706F727473A3
:1056200020287074722B35293A2025782C20257873
:105630000A000000AC010020495048433A2044656C
:10564000636F6D7072657373696E672064657374E0
:10565000696E6174696F6E0A00000000495048432A
:105660003A20556E636F6D70726573736564205573
:10567000445020706F72747320287074722B342918
:105680003A2025782C2025780A000000495048430C
:105690003A204465636F6D7072657373696E67203D
:1056A000736F757263650A00495048433A20556E1E
:1056B000636F6D707265737365642055445020701C
:1056C0006F72747320287074722B32293A202578F7
:1056D0002C2025780A000000736963736C6F777063
:1056E000616E20756E636F6D70726573735F686451
:1056F000723A206572726F7220756E737570706F7A
:10570000727465642055445020636F6D70726573C8
:1057100073696F6E0A000000495048433A2073696C
:1057200063736C6F7770616E20756E636F6D7072EE
:105730006573735F6864723A20636865636B737541
:105740006D20696E636C756465640A004950484356
:105750003A20736963736C6F7770616E20756E6346
:105760006F6D70726573735F6864723A2063686509
:10577000636B73756D202A4E4F542A20696E636CDB
:10578000756465640A00000084010020780100202F
:105790007C010020B412002070010020880100204C
:1057A00010DC0008655400089CDB0008380100206C
:1057B000736963736C6F7770616E206F7574707549
:1057C000743A2073656E64696E67207061636B65FF
:1057D00074206C656E2025640A0000007369637391
:1057E0006C6F7770616E206F75747075743A206895
:1057F0006561646572206F66206C656E2025640AA1
:1058000000000000A4DB00087569705F6C656E3AEB
:105810002025642C20667261676D656E74733A2072
:1058200025642C206672656520627566733A2025B2
:10583000640A000044726F7070696E672070616363
:105840006B65742C206E6F7420656E6F75676820B1
:105850006672656520627566730A0000467261674C
:105860006D656E746174696F6E2073656E64696EC8
:1058700067207061636B6574206C656E2025640A17
:1058800000000000736963736C6F7770616E206F46
:1058900075747075743A2031727374206672616722
:1058A0006D656E74200000009001002080010020D2
:1058B000FAA007F0C5FDFE4AFE4B1B78D118FE4A40
:1058C0001268FE4B1B78D018FD4A126807F01AFDCB
:1058D000FB490988F94A1278114488B204F053FE52
:1058E00004F0CAFE074627B9F64807F0A9FD0020D4
:1058F00040E66846FFF7C9FD384604F00CFF38461D
:1059000004F0F9FE0027F0480068012807D0EE48AF
:105910000068042803D0EC480068052804D1EBA0F7
:1059200007F08EFD002025E6E5480088E14909786A
:10593000084484B20520E149087000BFF14800889E
:1059400040F46040000ADC4909680870ED480078BE
:10595000D9490968487000BFD8480078281A20F053
:105960000700D749086056E0E7A007F069FDC4F3D7
:10597000C700D14909680871E2480088001BD04976
:105980000968884204DADF480088001BCC490860B7
:10599000E110E5480388CA480268E4A007F050FD1A
:1059A000C34A1119C44A1268C44B1B78D018C44AA0
:1059B000126807F0A7FCC2490988C04A127811444E
:1059C00088B204F0E0FD04F057FE074627B9DFA0D7
:1059D00007F036FD0020CDE56846FFF756FD384656
:1059E00004F099FE384604F086FE0027B44800888B
:1059F000204484B2B4480068012807D0B248006847
:105A0000042803D0B0480068052804D1AFA007F0EF
:105A100017FD0020AEE5BB4800888442A4DB1DE0F2
:105A2000B84B1B88A34F3F78DA1BA14BA14F3F789F
:105A3000D919A14B1B68A14F3F78D81907F062FC18
:105A4000B04909889B4A1278891A9C4A12781144F5
:105A500088B204F098FD6846FFF717FD012089E53C
:105A60002DE9FE4F00240025A14600260027A2466E
:105A70000020904908709149087004F087FD8E4914
:105A80000860042004F0B1FD00B2BC490860BC48C5
:105A9000FCF769FF20B10020BA490880BA490880A4
:105AA00085480068407884490968097840EA0120FF
:105AB00000F478400012C02802D0E02865D124E02C
:105AC000B2A007F0BDFC00257B48006840787A4909
:105AD0000968097840EA0120C0F30A0476480068A2
